{
  "contractName": "Contest",
  "abi": [
    {
      "inputs": [],
      "stateMutability": "nonpayable",
      "type": "constructor"
    },
    {
      "anonymous": false,
      "inputs": [
        {
          "indexed": true,
          "internalType": "uint256",
          "name": "candidateId",
          "type": "uint256"
        },
        {
          "indexed": false,
          "internalType": "string",
          "name": "name",
          "type": "string"
        }
      ],
      "name": "CandidateAdded",
      "type": "event"
    },
    {
      "anonymous": false,
      "inputs": [
        {
          "indexed": false,
          "internalType": "enum Contest.Phase",
          "name": "newPhase",
          "type": "uint8"
        }
      ],
      "name": "PhaseChanged",
      "type": "event"
    },
    {
      "anonymous": false,
      "inputs": [
        {
          "indexed": true,
          "internalType": "address",
          "name": "voter",
          "type": "address"
        },
        {
          "indexed": true,
          "internalType": "uint256",
          "name": "candidateId",
          "type": "uint256"
        }
      ],
      "name": "Voted",
      "type": "event"
    },
    {
      "inputs": [],
      "name": "admin",
      "outputs": [
        {
          "internalType": "address",
          "name": "",
          "type": "address"
        }
      ],
      "stateMutability": "view",
      "type": "function",
      "constant": true
    },
    {
      "inputs": [],
      "name": "candidateCount",
      "outputs": [
        {
          "internalType": "uint256",
          "name": "",
          "type": "uint256"
        }
      ],
      "stateMutability": "view",
      "type": "function",
      "constant": true
    },
    {
      "inputs": [
        {
          "internalType": "uint256",
          "name": "",
          "type": "uint256"
        }
      ],
      "name": "candidates",
      "outputs": [
        {
          "internalType": "uint256",
          "name": "id",
          "type": "uint256"
        },
        {
          "internalType": "string",
          "name": "name",
          "type": "string"
        },
        {
          "internalType": "uint256",
          "name": "voteCount",
          "type": "uint256"
        }
      ],
      "stateMutability": "view",
      "type": "function",
      "constant": true
    },
    {
      "inputs": [],
      "name": "currentPhase",
      "outputs": [
        {
          "internalType": "enum Contest.Phase",
          "name": "",
          "type": "uint8"
        }
      ],
      "stateMutability": "view",
      "type": "function",
      "constant": true
    },
    {
      "inputs": [
        {
          "internalType": "address",
          "name": "",
          "type": "address"
        }
      ],
      "name": "hasVoted",
      "outputs": [
        {
          "internalType": "bool",
          "name": "",
          "type": "bool"
        }
      ],
      "stateMutability": "view",
      "type": "function",
      "constant": true
    },
    {
      "inputs": [
        {
          "internalType": "string",
          "name": "_name",
          "type": "string"
        }
      ],
      "name": "addCandidate",
      "outputs": [],
      "stateMutability": "nonpayable",
      "type": "function"
    },
    {
      "inputs": [
        {
          "internalType": "uint256",
          "name": "_candidateId",
          "type": "uint256"
        }
      ],
      "name": "vote",
      "outputs": [],
      "stateMutability": "nonpayable",
      "type": "function"
    },
    {
      "inputs": [
        {
          "internalType": "enum Contest.Phase",
          "name": "_newPhase",
          "type": "uint8"
        }
      ],
      "name": "changePhase",
      "outputs": [],
      "stateMutability": "nonpayable",
      "type": "function"
    },
    {
      "inputs": [
        {
          "internalType": "uint256",
          "name": "_candidateId",
          "type": "uint256"
        }
      ],
      "name": "getCandidate",
      "outputs": [
        {
          "components": [
            {
              "internalType": "uint256",
              "name": "id",
              "type": "uint256"
            },
            {
              "internalType": "string",
              "name": "name",
              "type": "string"
            },
            {
              "internalType": "uint256",
              "name": "voteCount",
              "type": "uint256"
            }
          ],
          "internalType": "struct Contest.Candidate",
          "name": "",
          "type": "tuple"
        }
      ],
      "stateMutability": "view",
      "type": "function",
      "constant": true
    },
    {
      "inputs": [],
      "name": "getTotalCandidates",
      "outputs": [
        {
          "internalType": "uint256",
          "name": "",
          "type": "uint256"
        }
      ],
      "stateMutability": "view",
      "type": "function",
      "constant": true
    },
    {
      "inputs": [],
      "name": "getCurrentPhase",
      "outputs": [
        {
          "internalType": "enum Contest.Phase",
          "name": "",
          "type": "uint8"
        }
      ],
      "stateMutability": "view",
      "type": "function",
      "constant": true
    }
  ],
  "bytecode": "0x608060405234801561001057600080fd5b5033600060016101000a81548173ffffffffffffffffffffffffffffffffffffffff021916908373ffffffffffffffffffffffffffffffffffffffff16021790555060008060006101000a81548160ff0219169083600281111561007757610076610081565b5b02179055506100b0565b7f4e487b7100000000000000000000000000000000000000000000000000000000600052602160045260246000fd5b611701806100bf6000396000f3fe608060405234801561001057600080fd5b50600436106100a95760003560e01c80633477ee2e116100715780633477ee2e1461015257806335b8e82014610184578063462e91ec146101b4578063a3a40ea5146101d0578063a9a981a3146101ee578063f851a4401461020c576100a9565b80630121b93f146100ae578063055ad42e146100ca5780630721c297146100e857806309eef43e146101045780630deb56ab14610134575b600080fd5b6100c860048036038101906100c39190610a8b565b61022a565b005b6100d2610447565b6040516100df9190610b2f565b60405180910390f35b61010260048036038101906100fd9190610b6f565b610458565b005b61011e60048036038101906101199190610bfa565b610625565b60405161012b9190610c42565b60405180910390f35b61013c610645565b6040516101499190610c6c565b60405180910390f35b61016c60048036038101906101679190610a8b565b61064f565b60405161017b93929190610d17565b60405180910390f35b61019e60048036038101906101999190610a8b565b610701565b6040516101ab9190610dfe565b60405180910390f35b6101ce60048036038101906101c99190610f55565b610825565b005b6101d86109de565b6040516101e59190610b2f565b60405180910390f35b6101f66109f4565b6040516102039190610c6c565b60405180910390f35b6102146109fa565b6040516102219190610fad565b60405180910390f35b6001600281111561023e5761023d610ab8565b5b60008054906101000a900460ff16600281111561025e5761025d610ab8565b5b1461029e576040517f08c379a00000000000000000000000000000000000000000000000000000000081526004016102959061103a565b60405180910390fd5b600360003373ffffffffffffffffffffffffffffffffffffffff1673ffffffffffffffffffffffffffffffffffffffff16815260200190815260200160002060009054906101000a900460ff161561032b576040517f08c379a0000000000000000000000000000000000000000000000000000000008152600401610322906110a6565b60405180910390fd5b60008111801561033d57506001548111155b61037c576040517f08c379a000000000000000000000000000000000000000000000000000000000815260040161037390611112565b60405180910390fd5b6002600082815260200190815260200160002060020160008154809291906103a390611161565b91905055506001600360003373ffffffffffffffffffffffffffffffffffffffff1673ffffffffffffffffffffffffffffffffffffffff16815260200190815260200160002060006101000a81548160ff021916908315150217905550803373ffffffffffffffffffffffffffffffffffffffff167f4d99b957a2bc29a30ebd96a7be8e68fe50a3c701db28a91436490b7d53870ca460405160405180910390a350565b60008054906101000a900460ff1681565b600060019054906101000a900473ffffffffffffffffffffffffffffffffffffffff1673ffffffffffffffffffffffffffffffffffffffff163373ffffffffffffffffffffffffffffffffffffffff16146104e8576040517f08c379a00000000000000000000000000000000000000000000000000000000081526004016104df9061121b565b60405180910390fd5b60008054906101000a900460ff16600281111561050857610507610ab8565b5b81600281111561051b5761051a610ab8565b5b1161055b576040517f08c379a0000000000000000000000000000000000000000000000000000000008152600401610552906112ad565b60405180910390fd5b60028081111561056e5761056d610ab8565b5b81600281111561058157610580610ab8565b5b11156105c2576040517f08c379a00000000000000000000000000000000000000000000000000000000081526004016105b990611319565b60405180910390fd5b806000806101000a81548160ff021916908360028111156105e6576105e5610ab8565b5b02179055507fa6dcc92f45df25789d5639b7a0c97ba1edf3bb1c0b5dd3376fd96a0db87c46428160405161061a9190610b2f565b60405180910390a150565b60036020528060005260406000206000915054906101000a900460ff1681565b6000600154905090565b600260205280600052604060002060009150905080600001549080600101805461067890611368565b80601f01602080910402602001604051908101604052809291908181526020018280546106a490611368565b80156106f15780601f106106c6576101008083540402835291602001916106f1565b820191906000526020600020905b8154815290600101906020018083116106d457829003601f168201915b5050505050908060020154905083565b610709610a20565b60008211801561071b57506001548211155b61075a576040517f08c379a000000000000000000000000000000000000000000000000000000000815260040161075190611112565b60405180910390fd5b600260008381526020019081526020016000206040518060600160405290816000820154815260200160018201805461079290611368565b80601f01602080910402602001604051908101604052809291908181526020018280546107be90611368565b801561080b5780601f106107e05761010080835404028352916020019161080b565b820191906000526020600020905b8154815290600101906020018083116107ee57829003601f168201915b505050505081526020016002820154815250509050919050565b600060019054906101000a900473ffffffffffffffffffffffffffffffffffffffff1673ffffffffffffffffffffffffffffffffffffffff163373ffffffffffffffffffffffffffffffffffffffff16146108b5576040517f08c379a00000000000000000000000000000000000000000000000000000000081526004016108ac9061121b565b60405180910390fd5b600060028111156108c9576108c8610ab8565b5b60008054906101000a900460ff1660028111156108e9576108e8610ab8565b5b14610929576040517f08c379a00000000000000000000000000000000000000000000000000000000081526004016109209061140b565b60405180910390fd5b6001600081548092919061093c90611161565b919050555060405180606001604052806001548152602001828152602001600081525060026000600154815260200190815260200160002060008201518160000155602082015181600101908161099391906115d7565b50604082015181600201559050506001547fe83b2a43e7e82d975c8a0a6d2f045153c869e111136a34d1889ab7b598e396a3826040516109d391906116a9565b60405180910390a250565b60008060009054906101000a900460ff16905090565b60015481565b600060019054906101000a900473ffffffffffffffffffffffffffffffffffffffff1681565b60405180606001604052806000815260200160608152602001600081525090565b6000604051905090565b600080fd5b600080fd5b6000819050919050565b610a6881610a55565b8114610a7357600080fd5b50565b600081359050610a8581610a5f565b92915050565b600060208284031215610aa157610aa0610a4b565b5b6000610aaf84828501610a76565b91505092915050565b7f4e487b7100000000000000000000000000000000000000000000000000000000600052602160045260246000fd5b60038110610af857610af7610ab8565b5b50565b6000819050610b0982610ae7565b919050565b6000610b1982610afb565b9050919050565b610b2981610b0e565b82525050565b6000602082019050610b446000830184610b20565b92915050565b60038110610b5757600080fd5b50565b600081359050610b6981610b4a565b92915050565b600060208284031215610b8557610b84610a4b565b5b6000610b9384828501610b5a565b91505092915050565b600073ffffffffffffffffffffffffffffffffffffffff82169050919050565b6000610bc782610b9c565b9050919050565b610bd781610bbc565b8114610be257600080fd5b50565b600081359050610bf481610bce565b92915050565b600060208284031215610c1057610c0f610a4b565b5b6000610c1e84828501610be5565b91505092915050565b60008115159050919050565b610c3c81610c27565b82525050565b6000602082019050610c576000830184610c33565b92915050565b610c6681610a55565b82525050565b6000602082019050610c816000830184610c5d565b92915050565b600081519050919050565b600082825260208201905092915050565b60005b83811015610cc1578082015181840152602081019050610ca6565b60008484015250505050565b6000601f19601f8301169050919050565b6000610ce982610c87565b610cf38185610c92565b9350610d03818560208601610ca3565b610d0c81610ccd565b840191505092915050565b6000606082019050610d2c6000830186610c5d565b8181036020830152610d3e8185610cde565b9050610d4d6040830184610c5d565b949350505050565b610d5e81610a55565b82525050565b600082825260208201905092915050565b6000610d8082610c87565b610d8a8185610d64565b9350610d9a818560208601610ca3565b610da381610ccd565b840191505092915050565b6000606083016000830151610dc66000860182610d55565b5060208301518482036020860152610dde8282610d75565b9150506040830151610df36040860182610d55565b508091505092915050565b60006020820190508181036000830152610e188184610dae565b905092915050565b600080fd5b600080fd5b7f4e487b7100000000000000000000000000000000000000000000000000000000600052604160045260246000fd5b610e6282610ccd565b810181811067ffffffffffffffff82111715610e8157610e80610e2a565b5b80604052505050565b6000610e94610a41565b9050610ea08282610e59565b919050565b600067ffffffffffffffff821115610ec057610ebf610e2a565b5b610ec982610ccd565b9050602081019050919050565b82818337600083830152505050565b6000610ef8610ef384610ea5565b610e8a565b905082815260208101848484011115610f1457610f13610e25565b5b610f1f848285610ed6565b509392505050565b600082601f830112610f3c57610f3b610e20565b5b8135610f4c848260208601610ee5565b91505092915050565b600060208284031215610f6b57610f6a610a4b565b5b600082013567ffffffffffffffff811115610f8957610f88610a50565b5b610f9584828501610f27565b91505092915050565b610fa781610bbc565b82525050565b6000602082019050610fc26000830184610f9e565b92915050565b7f566f74696e67206973206e6f7420616c6c6f77656420696e207468652063757260008201527f72656e7420706861736500000000000000000000000000000000000000000000602082015250565b6000611024602a83610c92565b915061102f82610fc8565b604082019050919050565b6000602082019050818103600083015261105381611017565b9050919050565b7f596f75206861766520616c726561647920766f74656400000000000000000000600082015250565b6000611090601683610c92565b915061109b8261105a565b602082019050919050565b600060208201905081810360008301526110bf81611083565b9050919050565b7f496e76616c69642063616e646964617465204944000000000000000000000000600082015250565b60006110fc601483610c92565b9150611107826110c6565b602082019050919050565b6000602082019050818103600083015261112b816110ef565b9050919050565b7f4e487b7100000000000000000000000000000000000000000000000000000000600052601160045260246000fd5b600061116c82610a55565b91507fffffffffffffffffffffffffffffffffffffffffffffffffffffffffffffffff820361119e5761119d611132565b5b600182019050919050565b7f4f6e6c792061646d696e2063616e20706572666f726d2074686973206163746960008201527f6f6e000000000000000000000000000000000000000000000000000000000000602082015250565b6000611205602283610c92565b9150611210826111a9565b604082019050919050565b60006020820190508181036000830152611234816111f8565b9050919050565b7f43616e6e6f742072657665727420746f20612070726576696f7573207068617360008201527f6500000000000000000000000000000000000000000000000000000000000000602082015250565b6000611297602183610c92565b91506112a28261123b565b604082019050919050565b600060208201905081810360008301526112c68161128a565b9050919050565b7f496e76616c696420706861736500000000000000000000000000000000000000600082015250565b6000611303600d83610c92565b915061130e826112cd565b602082019050919050565b60006020820190508181036000830152611332816112f6565b9050919050565b7f4e487b7100000000000000000000000000000000000000000000000000000000600052602260045260246000fd5b6000600282049050600182168061138057607f821691505b60208210810361139357611392611339565b5b50919050565b7f43616e646964617465732063616e206f6e6c792062652061646465642064757260008201527f696e6720726567697374726174696f6e20706861736500000000000000000000602082015250565b60006113f5603683610c92565b915061140082611399565b604082019050919050565b60006020820190508181036000830152611424816113e8565b9050919050565b60008190508160005260206000209050919050565b60006020601f8301049050919050565b600082821b905092915050565b60006008830261148d7fffffffffffffffffffffffffffffffffffffffffffffffffffffffffffffffff82611450565b6114978683611450565b95508019841693508086168417925050509392505050565b6000819050919050565b60006114d46114cf6114ca84610a55565b6114af565b610a55565b9050919050565b6000819050919050565b6114ee836114b9565b6115026114fa826114db565b84845461145d565b825550505050565b600090565b61151761150a565b6115228184846114e5565b505050565b5b818110156115465761153b60008261150f565b600181019050611528565b5050565b601f82111561158b5761155c8161142b565b61156584611440565b81016020851015611574578190505b61158861158085611440565b830182611527565b50505b505050565b600082821c905092915050565b60006115ae60001984600802611590565b1980831691505092915050565b60006115c7838361159d565b9150826002028217905092915050565b6115e082610c87565b67ffffffffffffffff8111156115f9576115f8610e2a565b5b6116038254611368565b61160e82828561154a565b600060209050601f831160018114611641576000841561162f578287015190505b61163985826115bb565b8655506116a1565b601f19841661164f8661142b565b60005b8281101561167757848901518255600182019150602085019450602081019050611652565b868310156116945784890151611690601f89168261159d565b8355505b6001600288020188555050505b505050505050565b600060208201905081810360008301526116c38184610cde565b90509291505056fea2646970667358221220483ce9dc65347147cbc93b071317d423df32fd3ce708b06cbdcbd356febbf0f164736f6c63430008130033",
  "immutableReferences": {},
  "source": "// SPDX-License-Identifier: MIT\r\npragma solidity ^0.8.19;\r\n\r\ncontract Contest {\r\n    enum Phase { Registration, Voting, Results }\r\n    Phase public currentPhase;\r\n\r\n    struct Candidate {\r\n        uint id;\r\n        string name;\r\n        uint voteCount;\r\n    }\r\n\r\n    address public admin;\r\n    uint public candidateCount;\r\n    mapping(uint => Candidate) public candidates;\r\n    mapping(address => bool) public hasVoted;\r\n\r\n    event CandidateAdded(uint indexed candidateId, string name);\r\n    event Voted(address indexed voter, uint indexed candidateId);\r\n    event PhaseChanged(Phase newPhase);\r\n\r\n    modifier onlyAdmin() {\r\n        require(msg.sender == admin, \"Only admin can perform this action\");\r\n        _;\r\n    }\r\n\r\n    constructor() {\r\n        admin = msg.sender;\r\n        currentPhase = Phase.Registration; // Default phase\r\n    }\r\n\r\n    function addCandidate(string memory _name) public onlyAdmin {\r\n        require(currentPhase == Phase.Registration, \"Candidates can only be added during registration phase\");\r\n        candidateCount++;\r\n        candidates[candidateCount] = Candidate(candidateCount, _name, 0);\r\n        emit CandidateAdded(candidateCount, _name);\r\n    }\r\n\r\n    function vote(uint _candidateId) public {\r\n        require(currentPhase == Phase.Voting, \"Voting is not allowed in the current phase\");\r\n        require(!hasVoted[msg.sender], \"You have already voted\");\r\n        require(_candidateId > 0 && _candidateId <= candidateCount, \"Invalid candidate ID\");\r\n\r\n        candidates[_candidateId].voteCount++;\r\n        hasVoted[msg.sender] = true;\r\n\r\n        emit Voted(msg.sender, _candidateId);\r\n    }\r\n\r\n    function changePhase(Phase _newPhase) public onlyAdmin {\r\n        require(uint(_newPhase) > uint(currentPhase), \"Cannot revert to a previous phase\");\r\n        require(uint(_newPhase) <= uint(Phase.Results), \"Invalid phase\");\r\n        \r\n        currentPhase = _newPhase;\r\n        emit PhaseChanged(_newPhase);\r\n    }\r\n\r\n    function getCandidate(uint _candidateId) public view returns (Candidate memory) {\r\n        require(_candidateId > 0 && _candidateId <= candidateCount, \"Invalid candidate ID\");\r\n        return candidates[_candidateId];\r\n    }\r\n\r\n    function getTotalCandidates() public view returns (uint) {\r\n        return candidateCount;\r\n    }\r\n\r\n    function getCurrentPhase() public view returns (Phase) {\r\n        return currentPhase;\r\n    }\r\n}\r\n",
  "sourcePath": "C:\\Users\\ACER\\Desktop\\angela yu web dev\\E-Voting-using-BlockChain-admin-\\contracts\\Contest.sol",
  "compiler": {
    "name": "solc",
    "version": "0.8.19+commit.7dd6d404.Emscripten.clang"
  },
  "schemaVersion": "3.4.16",
  "updatedAt": "2025-03-24T05:22:04.125Z",
  "networkType": "ethereum",
  "devdoc": {
    "kind": "dev",
    "methods": {},
    "version": 1
  },
  "userdoc": {
    "kind": "user",
    "methods": {},
    "version": 1
  }
}